{
  "_format": "hh-sol-artifact-1",
  "contractName": "Hilow",
  "sourceName": "contracts/Hilow.sol",
  "abi": [
    {
      "inputs": [
        {
          "internalType": "uint64",
          "name": "subscriptionId",
          "type": "uint64"
        }
      ],
      "stateMutability": "payable",
      "type": "constructor"
    },
    {
      "inputs": [
        {
          "internalType": "address",
          "name": "have",
          "type": "address"
        },
        {
          "internalType": "address",
          "name": "want",
          "type": "address"
        }
      ],
      "name": "OnlyCoordinatorCanFulfill",
      "type": "error"
    },
    {
      "anonymous": false,
      "inputs": [
        {
          "indexed": true,
          "internalType": "address",
          "name": "player",
          "type": "address"
        },
        {
          "indexed": false,
          "internalType": "string",
          "name": "firstDrawCardName",
          "type": "string"
        }
      ],
      "name": "CardDrawn",
      "type": "event"
    },
    {
      "anonymous": false,
      "inputs": [
        {
          "indexed": true,
          "internalType": "address",
          "name": "tipper",
          "type": "address"
        },
        {
          "indexed": false,
          "internalType": "uint256",
          "name": "amount",
          "type": "uint256"
        }
      ],
      "name": "DealerTipped",
      "type": "event"
    },
    {
      "anonymous": false,
      "inputs": [
        {
          "indexed": true,
          "internalType": "address",
          "name": "player",
          "type": "address"
        },
        {
          "indexed": false,
          "internalType": "string",
          "name": "firstDrawCardName",
          "type": "string"
        },
        {
          "indexed": false,
          "internalType": "string",
          "name": "secondDrawCardName",
          "type": "string"
        },
        {
          "indexed": false,
          "internalType": "bool",
          "name": "isWin",
          "type": "bool"
        },
        {
          "indexed": false,
          "internalType": "uint256",
          "name": "payoutAmount",
          "type": "uint256"
        }
      ],
      "name": "GameFinished",
      "type": "event"
    },
    {
      "inputs": [
        {
          "internalType": "bool",
          "name": "higher",
          "type": "bool"
        }
      ],
      "name": "bet",
      "outputs": [],
      "stateMutability": "payable",
      "type": "function"
    },
    {
      "inputs": [],
      "name": "drawCard",
      "outputs": [],
      "stateMutability": "nonpayable",
      "type": "function"
    },
    {
      "inputs": [],
      "name": "getActiveGame",
      "outputs": [
        {
          "internalType": "bool",
          "name": "",
          "type": "bool"
        },
        {
          "components": [
            {
              "components": [
                {
                  "internalType": "uint256",
                  "name": "value",
                  "type": "uint256"
                }
              ],
              "internalType": "struct Hilow.Card",
              "name": "firstDraw",
              "type": "tuple"
            },
            {
              "components": [
                {
                  "internalType": "uint256",
                  "name": "value",
                  "type": "uint256"
                }
              ],
              "internalType": "struct Hilow.Card",
              "name": "secondDraw",
              "type": "tuple"
            }
          ],
          "internalType": "struct Hilow.Game",
          "name": "",
          "type": "tuple"
        }
      ],
      "stateMutability": "view",
      "type": "function"
    },
    {
      "inputs": [],
      "name": "initialCardLoad",
      "outputs": [],
      "stateMutability": "nonpayable",
      "type": "function"
    },
    {
      "inputs": [],
      "name": "isGameAlreadyStarted",
      "outputs": [
        {
          "internalType": "bool",
          "name": "",
          "type": "bool"
        }
      ],
      "stateMutability": "view",
      "type": "function"
    },
    {
      "inputs": [
        {
          "internalType": "uint256",
          "name": "requestId",
          "type": "uint256"
        },
        {
          "internalType": "uint256[]",
          "name": "randomWords",
          "type": "uint256[]"
        }
      ],
      "name": "rawFulfillRandomWords",
      "outputs": [],
      "stateMutability": "nonpayable",
      "type": "function"
    },
    {
      "inputs": [],
      "name": "tip",
      "outputs": [],
      "stateMutability": "payable",
      "type": "function"
    },
    {
      "inputs": [],
      "name": "viewCards",
      "outputs": [
        {
          "components": [
            {
              "internalType": "uint256",
              "name": "value",
              "type": "uint256"
            }
          ],
          "internalType": "struct Hilow.Card[20]",
          "name": "",
          "type": "tuple[20]"
        }
      ],
      "stateMutability": "view",
      "type": "function"
    },
    {
      "inputs": [],
      "name": "viewCurrentCardCounter",
      "outputs": [
        {
          "internalType": "uint256",
          "name": "",
          "type": "uint256"
        }
      ],
      "stateMutability": "view",
      "type": "function"
    },
    {
      "inputs": [
        {
          "internalType": "address",
          "name": "addr",
          "type": "address"
        }
      ],
      "name": "viewGame",
      "outputs": [
        {
          "components": [
            {
              "components": [
                {
                  "internalType": "uint256",
                  "name": "value",
                  "type": "uint256"
                }
              ],
              "internalType": "struct Hilow.Card",
              "name": "firstDraw",
              "type": "tuple"
            },
            {
              "components": [
                {
                  "internalType": "uint256",
                  "name": "value",
                  "type": "uint256"
                }
              ],
              "internalType": "struct Hilow.Card",
              "name": "secondDraw",
              "type": "tuple"
            }
          ],
          "internalType": "struct Hilow.Game",
          "name": "",
          "type": "tuple"
        }
      ],
      "stateMutability": "view",
      "type": "function"
    },
    {
      "inputs": [],
      "name": "withdraw",
      "outputs": [],
      "stateMutability": "nonpayable",
      "type": "function"
    }
  ],
  "bytecode": "0x60a0604052604051806020016040528060008152506002600082015181600001555050604051620022c8380380620022c8833981810160405281019062000047919062000170565b737a1bac17ccc5b313516c5e16fb24f7659aa5ebed8073ffffffffffffffffffffffffffffffffffffffff1660808173ffffffffffffffffffffffffffffffffffffffff1660601b8152505050737a1bac17ccc5b313516c5e16fb24f7659aa5ebed6000806101000a81548173ffffffffffffffffffffffffffffffffffffffff021916908373ffffffffffffffffffffffffffffffffffffffff16021790555033600160006101000a81548173ffffffffffffffffffffffffffffffffffffffff021916908373ffffffffffffffffffffffffffffffffffffffff16021790555080600060146101000a81548167ffffffffffffffff021916908367ffffffffffffffff16021790555050620001ca565b6000815190506200016a81620001b0565b92915050565b6000602082840312156200018357600080fd5b6000620001938482850162000159565b91505092915050565b600067ffffffffffffffff82169050919050565b620001bb816200019c565b8114620001c757600080fd5b50565b60805160601c6120d8620001f060003960008181610221015261027501526120d86000f3fe60806040526004361061009c5760003560e01c8063717c0aba11610064578063717c0aba1461011e57806385e6ed2e1461015b578063957b5fb414610186578063d1565c4e146101b2578063db5051ce146101dd578063fb2803cb146101f45761009c565b80631fe543e3146100a15780632755cd2d146100ca5780632f5be23e146100d45780633ccfd60b146100eb578063523afb0d14610102575b600080fd5b3480156100ad57600080fd5b506100c860048036038101906100c39190611664565b61021f565b005b6100d26102df565b005b3480156100e057600080fd5b506100e961036d565b005b3480156100f757600080fd5b5061010061055d565b005b61011c60048036038101906101179190611612565b610691565b005b34801561012a57600080fd5b50610145600480360381019061014091906115e9565b610a38565b6040516101529190611b33565b60405180910390f35b34801561016757600080fd5b50610170610b27565b60405161017d919061196b565b60405180910390f35b34801561019257600080fd5b5061019b610bda565b6040516101a99291906119a2565b60405180910390f35b3480156101be57600080fd5b506101c7610cd1565b6040516101d49190611987565b60405180910390f35b3480156101e957600080fd5b506101f2610d94565b005b34801561020057600080fd5b50610209610df9565b6040516102169190611b4e565b60405180910390f35b7f000000000000000000000000000000000000000000000000000000000000000073ffffffffffffffffffffffffffffffffffffffff163373ffffffffffffffffffffffffffffffffffffffff16146102d157337f00000000000000000000000000000000000000000000000000000000000000006040517f1cf993f40000000000000000000000000000000000000000000000000000000081526004016102c8929190611942565b60405180910390fd5b6102db8282610e64565b5050565b61031d6040518060400160405280600d81526020017f4465616c65722074697070656400000000000000000000000000000000000000815250610f47565b3373ffffffffffffffffffffffffffffffffffffffff167faeb748af67bf9eda4819fec479a0e3d66df3965f95a8e10a56e00ff0c3506e2d346040516103639190611b4e565b60405180910390a2565b601063ffffffff1661037f6017610fe0565b111561038f5761038d610fee565b505b601463ffffffff166103a16017610fe0565b11156103b2576103b160176110e7565b5b6103ba610cd1565b156103fa576040517f08c379a00000000000000000000000000000000000000000000000000000000081526004016103f190611af3565b60405180910390fd5b60006104066017610fe0565b905061041260176110f4565b60006003826014811061044e577f4e487b7100000000000000000000000000000000000000000000000000000000600052603260045260246000fd5b016040518060200160405290816000820154815250509050600060405180604001604052808381526020016002604051806020016040529081600082015481525050815250905080601860003373ffffffffffffffffffffffffffffffffffffffff1673ffffffffffffffffffffffffffffffffffffffff1681526020019081526020016000206000820151816000016000820151816000015550506020820151816001016000820151816000015550509050503373ffffffffffffffffffffffffffffffffffffffff167f0c09da089fe1b9ff434a36a4e92206fc1bea9019ee3300c7e7d36d7b3d21df036105438461110a565b6040516105509190611a1e565b60405180910390a2505050565b600160009054906101000a900473ffffffffffffffffffffffffffffffffffffffff1673ffffffffffffffffffffffffffffffffffffffff163373ffffffffffffffffffffffffffffffffffffffff16146105b757600080fd5b6000479050600080600160009054906101000a900473ffffffffffffffffffffffffffffffffffffffff1673ffffffffffffffffffffffffffffffffffffffff16836040516106059061192d565b60006040518083038185875af1925050503d8060008114610642576040519150601f19603f3d011682016040523d82523d6000602084013e610647565b606091505b50915091508161068c576040517f08c379a000000000000000000000000000000000000000000000000000000000815260040161068390611ab3565b60405180910390fd5b505050565b6000601860003373ffffffffffffffffffffffffffffffffffffffff1673ffffffffffffffffffffffffffffffffffffffff16815260200190815260200160002060405180604001604052908160008201604051806020016040529081600082015481525050815260200160018201604051806020016040529081600082015481525050815250509050600081600001516000015111610766576040517f08c379a000000000000000000000000000000000000000000000000000000000815260040161075d90611b13565b60405180910390fd5b6000816020015160000151146107b1576040517f08c379a00000000000000000000000000000000000000000000000000000000081526004016107a890611a93565b60405180910390fd5b601463ffffffff166107c36017610fe0565b11156107d4576107d360176110e7565b5b60006107e06017610fe0565b90506107ec60176110f4565b600060038260148110610828577f4e487b7100000000000000000000000000000000000000000000000000000000600052603260045260246000fd5b01604051806020016040529081600082015481525050905080836020018190525082601860003373ffffffffffffffffffffffffffffffffffffffff1673ffffffffffffffffffffffffffffffffffffffff168152602001908152602001600020600082015181600001600082015181600001555050602082015181600101600082015181600001555050905050600084156108df57836000015160000151846020015160000151106108da57600190505b6108fc565b836000015160000151846020015160000151116108fb57600190505b5b600081156109c4576002346109119190611c64565b90506000803373ffffffffffffffffffffffffffffffffffffffff168360405161093a90611918565b60006040518083038185875af1925050503d8060008114610977576040519150601f19603f3d011682016040523d82523d6000602084013e61097c565b606091505b5091509150816109c1576040517f08c379a00000000000000000000000000000000000000000000000000000000081526004016109b890611ad3565b60405180910390fd5b50505b3373ffffffffffffffffffffffffffffffffffffffff167f345b9c7b861628d43e528dff8894baa3b14525cbf23f57a4a4599dbba8580c86610a09876000015161110a565b610a16886020015161110a565b8585604051610a289493929190611a40565b60405180910390a2505050505050565b610a40611498565b600160009054906101000a900473ffffffffffffffffffffffffffffffffffffffff1673ffffffffffffffffffffffffffffffffffffffff163373ffffffffffffffffffffffffffffffffffffffff1614610a9a57600080fd5b601860008373ffffffffffffffffffffffffffffffffffffffff1673ffffffffffffffffffffffffffffffffffffffff16815260200190815260200160002060405180604001604052908160008201604051806020016040529081600082015481525050815260200160018201604051806020016040529081600082015481525050815250509050919050565b610b2f6114be565b600160009054906101000a900473ffffffffffffffffffffffffffffffffffffffff1673ffffffffffffffffffffffffffffffffffffffff163373ffffffffffffffffffffffffffffffffffffffff1614610b8957600080fd5b6003601480602002604051908101604052809291906000905b82821015610bd15783820160405180602001604052908160008201548152505081526020019060010190610ba2565b50505050905090565b6000610be4611498565b610bec610cd1565b15610c85576001601860003373ffffffffffffffffffffffffffffffffffffffff1673ffffffffffffffffffffffffffffffffffffffff168152602001908152602001600020806040518060400160405290816000820160405180602001604052908160008201548152505081526020016001820160405180602001604052908160008201548152505081525050905091509150610ccd565b60006040518060400160405280600260405180602001604052908160008201548152505081526020016002604051806020016040529081600082015481525050815250915091505b9091565b600080601860003373ffffffffffffffffffffffffffffffffffffffff1673ffffffffffffffffffffffffffffffffffffffff168152602001908152602001600020604051806040016040529081600082016040518060200160405290816000820154815250508152602001600182016040518060200160405290816000820154815250508152505090506000816000015160000151118015610d7c57506000816020015160000151145b15610d8b576001915050610d91565b60009150505b90565b600160009054906101000a900473ffffffffffffffffffffffffffffffffffffffff1673ffffffffffffffffffffffffffffffffffffffff163373ffffffffffffffffffffffffffffffffffffffff1614610dee57600080fd5b610df6610fee565b50565b6000600160009054906101000a900473ffffffffffffffffffffffffffffffffffffffff1673ffffffffffffffffffffffffffffffffffffffff163373ffffffffffffffffffffffffffffffffffffffff1614610e5557600080fd5b610e5f6017610fe0565b905090565b60005b601463ffffffff16811015610f385760405180602001604052806001600d858581518110610ebe577f4e487b7100000000000000000000000000000000000000000000000000000000600052603260045260246000fd5b6020026020010151610ed09190611e23565b610eda9190611c0e565b81525060038260148110610f17577f4e487b7100000000000000000000000000000000000000000000000000000000600052603260045260246000fd5b01600082015181600001559050508080610f3090611dda565b915050610e67565b50610f4360176110e7565b5050565b610fdd81604051602401610f5b9190611a1e565b6040516020818303038152906040527f41304fac000000000000000000000000000000000000000000000000000000007bffffffffffffffffffffffffffffffffffffffffffffffffffffffff19166020820180517bffffffffffffffffffffffffffffffffffffffffffffffffffffffff838183161783525050505061146f565b50565b600081600001549050919050565b60008060009054906101000a900473ffffffffffffffffffffffffffffffffffffffff1673ffffffffffffffffffffffffffffffffffffffff16635d3b1d307f4b09e658ed251bcafeebbc69400383d49f344ace09b9576fe248bb02c003fe9f60001b600060149054906101000a900467ffffffffffffffff166003620f424060146040518663ffffffff1660e01b81526004016110909594939291906119cb565b602060405180830381600087803b1580156110aa57600080fd5b505af11580156110be573d6000803e3d6000fd5b505050506040513d601f19601f820116820180604052508101906110e2919061163b565b905090565b6000816000018190555050565b6001816000016000828254019250508190555050565b60606000604051806101a001604052806040518060400160405280600181526020017f410000000000000000000000000000000000000000000000000000000000000081525081526020016040518060400160405280600181526020017f320000000000000000000000000000000000000000000000000000000000000081525081526020016040518060400160405280600181526020017f330000000000000000000000000000000000000000000000000000000000000081525081526020016040518060400160405280600181526020017f340000000000000000000000000000000000000000000000000000000000000081525081526020016040518060400160405280600181526020017f350000000000000000000000000000000000000000000000000000000000000081525081526020016040518060400160405280600181526020017f360000000000000000000000000000000000000000000000000000000000000081525081526020016040518060400160405280600181526020017f370000000000000000000000000000000000000000000000000000000000000081525081526020016040518060400160405280600181526020017f380000000000000000000000000000000000000000000000000000000000000081525081526020016040518060400160405280600181526020017f390000000000000000000000000000000000000000000000000000000000000081525081526020016040518060400160405280600281526020017f313000000000000000000000000000000000000000000000000000000000000081525081526020016040518060400160405280600181526020017f4a0000000000000000000000000000000000000000000000000000000000000081525081526020016040518060400160405280600181526020017f510000000000000000000000000000000000000000000000000000000000000081525081526020016040518060400160405280600181526020017f4b000000000000000000000000000000000000000000000000000000000000008152508152509050806001846000015161142b9190611cbe565b600d8110611462577f4e487b7100000000000000000000000000000000000000000000000000000000600052603260045260246000fd5b6020020151915050919050565b60008151905060006a636f6e736f6c652e6c6f679050602083016000808483855afa5050505050565b60405180604001604052806114ab6114ec565b81526020016114b86114ec565b81525090565b6040518061028001604052806014905b6114d66114ec565b8152602001906001900390816114ce5790505090565b6040518060200160405280600081525090565b600061151261150d84611b8e565b611b69565b9050808382526020820190508285602086028201111561153157600080fd5b60005b85811015611561578161154788826115bf565b845260208401935060208301925050600181019050611534565b5050509392505050565b60008135905061157a8161205d565b92915050565b600082601f83011261159157600080fd5b81356115a18482602086016114ff565b91505092915050565b6000813590506115b981612074565b92915050565b6000813590506115ce8161208b565b92915050565b6000815190506115e38161208b565b92915050565b6000602082840312156115fb57600080fd5b60006116098482850161156b565b91505092915050565b60006020828403121561162457600080fd5b6000611632848285016115aa565b91505092915050565b60006020828403121561164d57600080fd5b600061165b848285016115d4565b91505092915050565b6000806040838503121561167757600080fd5b6000611685858286016115bf565b925050602083013567ffffffffffffffff8111156116a257600080fd5b6116ae85828601611580565b9150509250929050565b60006116c48383611882565b60208301905092915050565b6116d981611cf2565b82525050565b6116e881611bc4565b6116f28184611be7565b92506116fd82611bba565b8060005b8381101561172e57815161171587826116b8565b965061172083611bda565b925050600181019050611701565b505050505050565b61173f81611d04565b82525050565b61174e81611d10565b82525050565b600061175f82611bcf565b6117698185611bfd565b9350611779818560208601611d76565b61178281611ee1565b840191505092915050565b600061179a602f83611bfd565b91506117a582611ef2565b604082019050919050565b60006117bd600f83611bfd565b91506117c882611f41565b602082019050919050565b60006117e0600e83611bf2565b91506117eb82611f6a565b600e82019050919050565b6000611803600d83611bfd565b915061180e82611f93565b602082019050919050565b6000611826601183611bf2565b915061183182611fbc565b601182019050919050565b6000611849601483611bfd565b915061185482611fe5565b602082019050919050565b600061186c602783611bfd565b91506118778261200e565b604082019050919050565b60208201600082015161189860008501826118dc565b50505050565b6040820160008201516118b46000850182611882565b5060208201516118c76020850182611882565b50505050565b6118d681611d1a565b82525050565b6118e581611d48565b82525050565b6118f481611d48565b82525050565b61190381611d52565b82525050565b61191281611d62565b82525050565b6000611923826117d3565b9150819050919050565b600061193882611819565b9150819050919050565b600060408201905061195760008301856116d0565b61196460208301846116d0565b9392505050565b60006102808201905061198160008301846116df565b92915050565b600060208201905061199c6000830184611736565b92915050565b60006060820190506119b76000830185611736565b6119c4602083018461189e565b9392505050565b600060a0820190506119e06000830188611745565b6119ed6020830187611909565b6119fa60408301866118cd565b611a0760608301856118fa565b611a1460808301846118fa565b9695505050505050565b60006020820190508181036000830152611a388184611754565b905092915050565b60006080820190508181036000830152611a5a8187611754565b90508181036020830152611a6e8186611754565b9050611a7d6040830185611736565b611a8a60608301846118eb565b95945050505050565b60006020820190508181036000830152611aac8161178d565b9050919050565b60006020820190508181036000830152611acc816117b0565b9050919050565b60006020820190508181036000830152611aec816117f6565b9050919050565b60006020820190508181036000830152611b0c8161183c565b9050919050565b60006020820190508181036000830152611b2c8161185f565b9050919050565b6000604082019050611b48600083018461189e565b92915050565b6000602082019050611b6360008301846118eb565b92915050565b6000611b73611b84565b9050611b7f8282611da9565b919050565b6000604051905090565b600067ffffffffffffffff821115611ba957611ba8611eb2565b5b602082029050602081019050919050565b6000819050919050565b600060149050919050565b600081519050919050565b6000602082019050919050565b600081905092915050565b600081905092915050565b600082825260208201905092915050565b6000611c1982611d48565b9150611c2483611d48565b9250827fffffffffffffffffffffffffffffffffffffffffffffffffffffffffffffffff03821115611c5957611c58611e54565b5b828201905092915050565b6000611c6f82611d48565b9150611c7a83611d48565b9250817fffffffffffffffffffffffffffffffffffffffffffffffffffffffffffffffff0483118215151615611cb357611cb2611e54565b5b828202905092915050565b6000611cc982611d48565b9150611cd483611d48565b925082821015611ce757611ce6611e54565b5b828203905092915050565b6000611cfd82611d28565b9050919050565b60008115159050919050565b6000819050919050565b600061ffff82169050919050565b600073ffffffffffffffffffffffffffffffffffffffff82169050919050565b6000819050919050565b600063ffffffff82169050919050565b600067ffffffffffffffff82169050919050565b60005b83811015611d94578082015181840152602081019050611d79565b83811115611da3576000848401525b50505050565b611db282611ee1565b810181811067ffffffffffffffff82111715611dd157611dd0611eb2565b5b80604052505050565b6000611de582611d48565b91507fffffffffffffffffffffffffffffffffffffffffffffffffffffffffffffffff821415611e1857611e17611e54565b5b600182019050919050565b6000611e2e82611d48565b9150611e3983611d48565b925082611e4957611e48611e83565b5b828206905092915050565b7f4e487b7100000000000000000000000000000000000000000000000000000000600052601160045260246000fd5b7f4e487b7100000000000000000000000000000000000000000000000000000000600052601260045260246000fd5b7f4e487b7100000000000000000000000000000000000000000000000000000000600052604160045260246000fd5b6000601f19601f8301169050919050565b7f5365636f6e6420636172642068617320616c7265616479206265656e2064726160008201527f776e20666f72207468652067616d650000000000000000000000000000000000602082015250565b7f5769746864726177206661696c65640000000000000000000000000000000000600082015250565b7f53656e64696e67207061796f7574000000000000000000000000000000000000600082015250565b7f5061796f7574206661696c656400000000000000000000000000000000000000600082015250565b7f5769746864726177696e672066756e6473000000000000000000000000000000600082015250565b7f47616d6520616c72656164792073746172746564000000000000000000000000600082015250565b7f466972737420636172642073686f756c6420626520647261776e20666f72207460008201527f68652067616d6500000000000000000000000000000000000000000000000000602082015250565b61206681611cf2565b811461207157600080fd5b50565b61207d81611d04565b811461208857600080fd5b50565b61209481611d48565b811461209f57600080fd5b5056fea264697066735822122051b8ae6de71500d73a9c1e14b905f18c721436c1da8c835ab352ec6385290cfb64736f6c63430008040033",
  "linkReferences": {},
  "deployedLinkReferences": {}
}