{
  "_format": "hh-sol-artifact-1",
  "contractName": "Hilow",
  "sourceName": "contracts/Hilow.sol",
  "abi": [
    {
      "inputs": [
        {
          "internalType": "uint64",
          "name": "subscriptionId",
          "type": "uint64"
        }
      ],
      "stateMutability": "payable",
      "type": "constructor"
    },
    {
      "inputs": [
        {
          "internalType": "address",
          "name": "have",
          "type": "address"
        },
        {
          "internalType": "address",
          "name": "want",
          "type": "address"
        }
      ],
      "name": "OnlyCoordinatorCanFulfill",
      "type": "error"
    },
    {
      "anonymous": false,
      "inputs": [
        {
          "indexed": true,
          "internalType": "address",
          "name": "player",
          "type": "address"
        },
        {
          "indexed": false,
          "internalType": "uint256",
          "name": "firstDrawCard",
          "type": "uint256"
        }
      ],
      "name": "CardDrawn",
      "type": "event"
    },
    {
      "anonymous": false,
      "inputs": [
        {
          "indexed": true,
          "internalType": "address",
          "name": "tipper",
          "type": "address"
        },
        {
          "indexed": false,
          "internalType": "uint256",
          "name": "amount",
          "type": "uint256"
        }
      ],
      "name": "DealerTipped",
      "type": "event"
    },
    {
      "anonymous": false,
      "inputs": [
        {
          "indexed": true,
          "internalType": "address",
          "name": "player",
          "type": "address"
        },
        {
          "indexed": false,
          "internalType": "uint256",
          "name": "firstDrawCard",
          "type": "uint256"
        },
        {
          "indexed": false,
          "internalType": "uint256",
          "name": "secondDrawCard",
          "type": "uint256"
        },
        {
          "indexed": false,
          "internalType": "bool",
          "name": "isWin",
          "type": "bool"
        },
        {
          "indexed": false,
          "internalType": "uint256",
          "name": "payoutAmount",
          "type": "uint256"
        }
      ],
      "name": "GameFinished",
      "type": "event"
    },
    {
      "inputs": [
        {
          "internalType": "bool",
          "name": "higher",
          "type": "bool"
        }
      ],
      "name": "bet",
      "outputs": [],
      "stateMutability": "payable",
      "type": "function"
    },
    {
      "inputs": [],
      "name": "drawCard",
      "outputs": [],
      "stateMutability": "nonpayable",
      "type": "function"
    },
    {
      "inputs": [],
      "name": "getActiveGame",
      "outputs": [
        {
          "internalType": "bool",
          "name": "",
          "type": "bool"
        },
        {
          "components": [
            {
              "components": [
                {
                  "internalType": "uint256",
                  "name": "value",
                  "type": "uint256"
                }
              ],
              "internalType": "struct Hilow.Card",
              "name": "firstDraw",
              "type": "tuple"
            },
            {
              "components": [
                {
                  "internalType": "uint256",
                  "name": "value",
                  "type": "uint256"
                }
              ],
              "internalType": "struct Hilow.Card",
              "name": "secondDraw",
              "type": "tuple"
            }
          ],
          "internalType": "struct Hilow.Game",
          "name": "",
          "type": "tuple"
        }
      ],
      "stateMutability": "view",
      "type": "function"
    },
    {
      "inputs": [],
      "name": "initialCardLoad",
      "outputs": [],
      "stateMutability": "nonpayable",
      "type": "function"
    },
    {
      "inputs": [],
      "name": "isGameAlreadyStarted",
      "outputs": [
        {
          "internalType": "bool",
          "name": "",
          "type": "bool"
        }
      ],
      "stateMutability": "view",
      "type": "function"
    },
    {
      "inputs": [
        {
          "internalType": "uint256",
          "name": "requestId",
          "type": "uint256"
        },
        {
          "internalType": "uint256[]",
          "name": "randomWords",
          "type": "uint256[]"
        }
      ],
      "name": "rawFulfillRandomWords",
      "outputs": [],
      "stateMutability": "nonpayable",
      "type": "function"
    },
    {
      "inputs": [],
      "name": "tip",
      "outputs": [],
      "stateMutability": "payable",
      "type": "function"
    },
    {
      "inputs": [],
      "name": "viewCards",
      "outputs": [
        {
          "components": [
            {
              "internalType": "uint256",
              "name": "value",
              "type": "uint256"
            }
          ],
          "internalType": "struct Hilow.Card[20]",
          "name": "",
          "type": "tuple[20]"
        }
      ],
      "stateMutability": "view",
      "type": "function"
    },
    {
      "inputs": [],
      "name": "viewCurrentCardCounter",
      "outputs": [
        {
          "internalType": "uint256",
          "name": "",
          "type": "uint256"
        }
      ],
      "stateMutability": "view",
      "type": "function"
    },
    {
      "inputs": [
        {
          "internalType": "address",
          "name": "addr",
          "type": "address"
        }
      ],
      "name": "viewGame",
      "outputs": [
        {
          "components": [
            {
              "components": [
                {
                  "internalType": "uint256",
                  "name": "value",
                  "type": "uint256"
                }
              ],
              "internalType": "struct Hilow.Card",
              "name": "firstDraw",
              "type": "tuple"
            },
            {
              "components": [
                {
                  "internalType": "uint256",
                  "name": "value",
                  "type": "uint256"
                }
              ],
              "internalType": "struct Hilow.Card",
              "name": "secondDraw",
              "type": "tuple"
            }
          ],
          "internalType": "struct Hilow.Game",
          "name": "",
          "type": "tuple"
        }
      ],
      "stateMutability": "view",
      "type": "function"
    },
    {
      "inputs": [
        {
          "internalType": "bool",
          "name": "higher",
          "type": "bool"
        },
        {
          "internalType": "uint256",
          "name": "firstCard",
          "type": "uint256"
        }
      ],
      "name": "viewPayoffForBet",
      "outputs": [
        {
          "internalType": "uint256",
          "name": "",
          "type": "uint256"
        }
      ],
      "stateMutability": "view",
      "type": "function"
    },
    {
      "inputs": [],
      "name": "withdraw",
      "outputs": [],
      "stateMutability": "nonpayable",
      "type": "function"
    }
  ],
  "bytecode": "0x60a0604052604051806020016040528060008152506002600082015181600001555050604051620024a2380380620024a283398181016040528101906200004791906200044a565b737a1bac17ccc5b313516c5e16fb24f7659aa5ebed8073ffffffffffffffffffffffffffffffffffffffff1660808173ffffffffffffffffffffffffffffffffffffffff168152505050737a1bac17ccc5b313516c5e16fb24f7659aa5ebed6000806101000a81548173ffffffffffffffffffffffffffffffffffffffff021916908373ffffffffffffffffffffffffffffffffffffffff16021790555033600160006101000a81548173ffffffffffffffffffffffffffffffffffffffff021916908373ffffffffffffffffffffffffffffffffffffffff16021790555080600060146101000a81548167ffffffffffffffff021916908367ffffffffffffffff16021790555061012c60036000600181526020019081526020016000208190555061011d60036000600281526020019081526020016000208190555061010e60036000600381526020019081526020016000208190555060fd60036000600481526020019081526020016000208190555060ec60036000600581526020019081526020016000208190555060db60036000600681526020019081526020016000208190555060ca60036000600781526020019081526020016000208190555060b960036000600881526020019081526020016000208190555060a8600360006009815260200190815260200160002081905550609760036000600a815260200190815260200160002081905550608660036000600b815260200190815260200160002081905550607560036000600c815260200190815260200160002081905550606460036000600d815260200190815260200160002081905550606460046000600181526020019081526020016000208190555060756004600060028152602001908152602001600020819055506086600460006003815260200190815260200160002081905550609760046000600481526020019081526020016000208190555060a860046000600581526020019081526020016000208190555060b960046000600681526020019081526020016000208190555060ca60046000600781526020019081526020016000208190555060db60046000600881526020019081526020016000208190555060ec60046000600981526020019081526020016000208190555060fd60046000600a81526020019081526020016000208190555061010e60046000600b81526020019081526020016000208190555061011d60046000600c81526020019081526020016000208190555061012c60046000600d815260200190815260200160002081905550506200047c565b600080fd5b600067ffffffffffffffff82169050919050565b620004248162000405565b81146200043057600080fd5b50565b600081519050620004448162000419565b92915050565b60006020828403121562000463576200046262000400565b5b6000620004738482850162000433565b91505092915050565b6080516120036200049f6000396000818161026901526102bd01526120036000f3fe6080604052600436106100a75760003560e01c806385e6ed2e1161006457806385e6ed2e146101665780638d0819ea14610191578063957b5fb4146101ce578063d1565c4e146101fa578063db5051ce14610225578063fb2803cb1461023c576100a7565b80631fe543e3146100ac5780632755cd2d146100d55780632f5be23e146100df5780633ccfd60b146100f6578063523afb0d1461010d578063717c0aba14610129575b600080fd5b3480156100b857600080fd5b506100d360048036038101906100ce91906114da565b610267565b005b6100dd610327565b005b3480156100eb57600080fd5b506100f46103b5565b005b34801561010257600080fd5b5061010b61057b565b005b6101276004803603810190610122919061156e565b6106af565b005b34801561013557600080fd5b50610150600480360381019061014b91906115f9565b6109e6565b60405161015d9190611680565b60405180910390f35b34801561017257600080fd5b5061017b610ad5565b6040516101889190611737565b60405180910390f35b34801561019d57600080fd5b506101b860048036038101906101b39190611753565b610b88565b6040516101c591906117a2565b60405180910390f35b3480156101da57600080fd5b506101e3610c19565b6040516101f19291906117cc565b60405180910390f35b34801561020657600080fd5b5061020f610d10565b60405161021c91906117f5565b60405180910390f35b34801561023157600080fd5b5061023a610dd3565b005b34801561024857600080fd5b50610251610e38565b60405161025e91906117a2565b60405180910390f35b7f000000000000000000000000000000000000000000000000000000000000000073ffffffffffffffffffffffffffffffffffffffff163373ffffffffffffffffffffffffffffffffffffffff161461031957337f00000000000000000000000000000000000000000000000000000000000000006040517f1cf993f400000000000000000000000000000000000000000000000000000000815260040161031092919061181f565b60405180910390fd5b6103238282610ea3565b5050565b6103656040518060400160405280600d81526020017f4465616c65722074697070656400000000000000000000000000000000000000815250610f3a565b3373ffffffffffffffffffffffffffffffffffffffff167faeb748af67bf9eda4819fec479a0e3d66df3965f95a8e10a56e00ff0c3506e2d346040516103ab91906117a2565b60405180910390a2565b601063ffffffff166103c76019610fd3565b11156103d7576103d5610fe1565b505b601463ffffffff166103e96019610fd3565b11156103fa576103f960196110cb565b5b610402610d10565b15610442576040517f08c379a0000000000000000000000000000000000000000000000000000000008152600401610439906118a5565b60405180910390fd5b600061044e6019610fd3565b905061045a60196110d8565b6000600582601481106104705761046f6118c5565b5b016040518060200160405290816000820154815250509050600060405180604001604052808381526020016002604051806020016040529081600082015481525050815250905080601a60003373ffffffffffffffffffffffffffffffffffffffff1673ffffffffffffffffffffffffffffffffffffffff1681526020019081526020016000206000820151816000016000820151816000015550506020820151816001016000820151816000015550509050503373ffffffffffffffffffffffffffffffffffffffff167fe03d22eed58609dac2f9724dfcad843c62fd0ba8050bf0eef99b6d1be0458c18836000015160405161056e91906117a2565b60405180910390a2505050565b600160009054906101000a900473ffffffffffffffffffffffffffffffffffffffff1673ffffffffffffffffffffffffffffffffffffffff163373ffffffffffffffffffffffffffffffffffffffff16146105d557600080fd5b6000479050600080600160009054906101000a900473ffffffffffffffffffffffffffffffffffffffff1673ffffffffffffffffffffffffffffffffffffffff16836040516106239061194b565b60006040518083038185875af1925050503d8060008114610660576040519150601f19603f3d011682016040523d82523d6000602084013e610665565b606091505b5091509150816106aa576040517f08c379a00000000000000000000000000000000000000000000000000000000081526004016106a1906119ac565b60405180910390fd5b505050565b6000601a60003373ffffffffffffffffffffffffffffffffffffffff1673ffffffffffffffffffffffffffffffffffffffff16815260200190815260200160002060405180604001604052908160008201604051806020016040529081600082015481525050815260200160018201604051806020016040529081600082015481525050815250509050600081600001516000015111610784576040517f08c379a000000000000000000000000000000000000000000000000000000000815260040161077b90611a3e565b60405180910390fd5b6000816020015160000151146107cf576040517f08c379a00000000000000000000000000000000000000000000000000000000081526004016107c690611ad0565b60405180910390fd5b601463ffffffff166107e16019610fd3565b11156107f2576107f160196110cb565b5b60006107fe6019610fd3565b905061080a60196110d8565b6000600582601481106108205761081f6118c5565b5b01604051806020016040529081600082015481525050905080836020018190525082601a60003373ffffffffffffffffffffffffffffffffffffffff1673ffffffffffffffffffffffffffffffffffffffff1681526020019081526020016000206000820151816000016000820151816000015550506020820151816001016000820151816000015550509050506000806108bb85876110ee565b8092508193505050811561097a576000803373ffffffffffffffffffffffffffffffffffffffff16836040516108f090611b3c565b60006040518083038185875af1925050503d806000811461092d576040519150601f19603f3d011682016040523d82523d6000602084013e610932565b606091505b509150915081610977576040517f08c379a000000000000000000000000000000000000000000000000000000000815260040161096e90611b9d565b60405180910390fd5b50505b3373ffffffffffffffffffffffffffffffffffffffff167fd5e55c324aecf41097905ffaae7bc2cd4c3830568ecac4157df1c47da1f8c9ee86600001516000015187602001516000015185856040516109d69493929190611bbd565b60405180910390a2505050505050565b6109ee6112d0565b600160009054906101000a900473ffffffffffffffffffffffffffffffffffffffff1673ffffffffffffffffffffffffffffffffffffffff163373ffffffffffffffffffffffffffffffffffffffff1614610a4857600080fd5b601a60008373ffffffffffffffffffffffffffffffffffffffff1673ffffffffffffffffffffffffffffffffffffffff16815260200190815260200160002060405180604001604052908160008201604051806020016040529081600082015481525050815260200160018201604051806020016040529081600082015481525050815250509050919050565b610add6112f6565b600160009054906101000a900473ffffffffffffffffffffffffffffffffffffffff1673ffffffffffffffffffffffffffffffffffffffff163373ffffffffffffffffffffffffffffffffffffffff1614610b3757600080fd5b6005601480602002604051908101604052809291906000905b82821015610b7f5783820160405180602001604052908160008201548152505081526020019060010190610b50565b50505050905090565b600060018210158015610b9c5750600d8211155b610bdb576040517f08c379a0000000000000000000000000000000000000000000000000000000008152600401610bd290611c4e565b60405180910390fd5b8215610bfc5760046000838152602001908152602001600020549050610c13565b600360008381526020019081526020016000205490505b92915050565b6000610c236112d0565b610c2b610d10565b15610cc4576001601a60003373ffffffffffffffffffffffffffffffffffffffff1673ffffffffffffffffffffffffffffffffffffffff168152602001908152602001600020806040518060400160405290816000820160405180602001604052908160008201548152505081526020016001820160405180602001604052908160008201548152505081525050905091509150610d0c565b60006040518060400160405280600260405180602001604052908160008201548152505081526020016002604051806020016040529081600082015481525050815250915091505b9091565b600080601a60003373ffffffffffffffffffffffffffffffffffffffff1673ffffffffffffffffffffffffffffffffffffffff168152602001908152602001600020604051806040016040529081600082016040518060200160405290816000820154815250508152602001600182016040518060200160405290816000820154815250508152505090506000816000015160000151118015610dbb57506000816020015160000151145b15610dca576001915050610dd0565b60009150505b90565b600160009054906101000a900473ffffffffffffffffffffffffffffffffffffffff1673ffffffffffffffffffffffffffffffffffffffff163373ffffffffffffffffffffffffffffffffffffffff1614610e2d57600080fd5b610e35610fe1565b50565b6000600160009054906101000a900473ffffffffffffffffffffffffffffffffffffffff1673ffffffffffffffffffffffffffffffffffffffff163373ffffffffffffffffffffffffffffffffffffffff1614610e9457600080fd5b610e9e6019610fd3565b905090565b60005b601463ffffffff16811015610f2b5760405180602001604052806001600d858581518110610ed757610ed66118c5565b5b6020026020010151610ee99190611c9d565b610ef39190611cfd565b81525060058260148110610f0a57610f096118c5565b5b01600082015181600001559050508080610f2390611d53565b915050610ea6565b50610f3660196110cb565b5050565b610fd081604051602401610f4e9190611e13565b6040516020818303038152906040527f41304fac000000000000000000000000000000000000000000000000000000007bffffffffffffffffffffffffffffffffffffffffffffffffffffffff19166020820180517bffffffffffffffffffffffffffffffffffffffffffffffffffffffff8381831617835250505050611291565b50565b600081600001549050919050565b60008060009054906101000a900473ffffffffffffffffffffffffffffffffffffffff1673ffffffffffffffffffffffffffffffffffffffff16635d3b1d307f4b09e658ed251bcafeebbc69400383d49f344ace09b9576fe248bb02c003fe9f60001b600060149054906101000a900467ffffffffffffffff166003620f424060146040518663ffffffff1660e01b8152600401611083959493929190611ead565b6020604051808303816000875af11580156110a2573d6000803e3d6000fd5b505050506040513d601f19601f820116820180604052508101906110c69190611f15565b905090565b6000816000018190555050565b6001816000016000828254019250508190555050565b60008060008315611182576001856000015160000151141561112c57846000015160000151856020015160000151111561112757600190505b61117d565b600d856000015160000151141561115f57846000015160000151856020015160000151141561115a57600190505b61117c565b8460000151600001518560200151600001511061117b57600190505b5b5b611207565b600185600001516000015114156111b55784600001516000015185602001516000015114156111b057600190505b611206565b600d85600001516000015114156111e85784600001516000015185602001516000015110156111e357600190505b611205565b8460000151600001518560200151600001511161120457600190505b5b5b5b6000811561128257841561124d57611246346004600089600001516000015181526020019081526020016000205461123f9190611f42565b60646112ba565b9050611281565b61127e34600360008960000151600001518152602001908152602001600020546112779190611f42565b60646112ba565b90505b5b81819350935050509250929050565b60008151905060006a636f6e736f6c652e6c6f679050602083016000808483855afa5050505050565b600081836112c89190611f9c565b905092915050565b60405180604001604052806112e3611324565b81526020016112f0611324565b81525090565b6040518061028001604052806014905b61130e611324565b8152602001906001900390816113065790505090565b6040518060200160405280600081525090565b6000604051905090565b600080fd5b600080fd5b6000819050919050565b61135e8161134b565b811461136957600080fd5b50565b60008135905061137b81611355565b92915050565b600080fd5b6000601f19601f8301169050919050565b7f4e487b7100000000000000000000000000000000000000000000000000000000600052604160045260246000fd5b6113cf82611386565b810181811067ffffffffffffffff821117156113ee576113ed611397565b5b80604052505050565b6000611401611337565b905061140d82826113c6565b919050565b600067ffffffffffffffff82111561142d5761142c611397565b5b602082029050602081019050919050565b600080fd5b600061145661145184611412565b6113f7565b905080838252602082019050602084028301858111156114795761147861143e565b5b835b818110156114a2578061148e888261136c565b84526020840193505060208101905061147b565b5050509392505050565b600082601f8301126114c1576114c0611381565b5b81356114d1848260208601611443565b91505092915050565b600080604083850312156114f1576114f0611341565b5b60006114ff8582860161136c565b925050602083013567ffffffffffffffff8111156115205761151f611346565b5b61152c858286016114ac565b9150509250929050565b60008115159050919050565b61154b81611536565b811461155657600080fd5b50565b60008135905061156881611542565b92915050565b60006020828403121561158457611583611341565b5b600061159284828501611559565b91505092915050565b600073ffffffffffffffffffffffffffffffffffffffff82169050919050565b60006115c68261159b565b9050919050565b6115d6816115bb565b81146115e157600080fd5b50565b6000813590506115f3816115cd565b92915050565b60006020828403121561160f5761160e611341565b5b600061161d848285016115e4565b91505092915050565b61162f8161134b565b82525050565b60208201600082015161164b6000850182611626565b50505050565b6040820160008201516116676000850182611635565b50602082015161167a6020850182611635565b50505050565b60006040820190506116956000830184611651565b92915050565b600060149050919050565b600081905092915050565b6000819050919050565b60006116c78383611635565b60208301905092915050565b6000602082019050919050565b6116e98161169b565b6116f381846116a6565b92506116fe826116b1565b8060005b8381101561172f57815161171687826116bb565b9650611721836116d3565b925050600181019050611702565b505050505050565b60006102808201905061174d60008301846116e0565b92915050565b6000806040838503121561176a57611769611341565b5b600061177885828601611559565b92505060206117898582860161136c565b9150509250929050565b61179c8161134b565b82525050565b60006020820190506117b76000830184611793565b92915050565b6117c681611536565b82525050565b60006060820190506117e160008301856117bd565b6117ee6020830184611651565b9392505050565b600060208201905061180a60008301846117bd565b92915050565b611819816115bb565b82525050565b60006040820190506118346000830185611810565b6118416020830184611810565b9392505050565b600082825260208201905092915050565b7f47616d6520616c72656164792073746172746564000000000000000000000000600082015250565b600061188f601483611848565b915061189a82611859565b602082019050919050565b600060208201905081810360008301526118be81611882565b9050919050565b7f4e487b7100000000000000000000000000000000000000000000000000000000600052603260045260246000fd5b600081905092915050565b7f5769746864726177696e672066756e6473000000000000000000000000000000600082015250565b60006119356011836118f4565b9150611940826118ff565b601182019050919050565b600061195682611928565b9150819050919050565b7f5769746864726177206661696c65640000000000000000000000000000000000600082015250565b6000611996600f83611848565b91506119a182611960565b602082019050919050565b600060208201905081810360008301526119c581611989565b9050919050565b7f466972737420636172642073686f756c6420626520647261776e20666f72207460008201527f68652067616d6500000000000000000000000000000000000000000000000000602082015250565b6000611a28602783611848565b9150611a33826119cc565b604082019050919050565b60006020820190508181036000830152611a5781611a1b565b9050919050565b7f5365636f6e6420636172642068617320616c7265616479206265656e2064726160008201527f776e20666f72207468652067616d650000000000000000000000000000000000602082015250565b6000611aba602f83611848565b9150611ac582611a5e565b604082019050919050565b60006020820190508181036000830152611ae981611aad565b9050919050565b7f53656e64696e67207061796f7574000000000000000000000000000000000000600082015250565b6000611b26600e836118f4565b9150611b3182611af0565b600e82019050919050565b6000611b4782611b19565b9150819050919050565b7f5061796f7574206661696c656400000000000000000000000000000000000000600082015250565b6000611b87600d83611848565b9150611b9282611b51565b602082019050919050565b60006020820190508181036000830152611bb681611b7a565b9050919050565b6000608082019050611bd26000830187611793565b611bdf6020830186611793565b611bec60408301856117bd565b611bf96060830184611793565b95945050505050565b7f496e76616c696420666972737420636172640000000000000000000000000000600082015250565b6000611c38601283611848565b9150611c4382611c02565b602082019050919050565b60006020820190508181036000830152611c6781611c2b565b9050919050565b7f4e487b7100000000000000000000000000000000000000000000000000000000600052601260045260246000fd5b6000611ca88261134b565b9150611cb38361134b565b925082611cc357611cc2611c6e565b5b828206905092915050565b7f4e487b7100000000000000000000000000000000000000000000000000000000600052601160045260246000fd5b6000611d088261134b565b9150611d138361134b565b9250827fffffffffffffffffffffffffffffffffffffffffffffffffffffffffffffffff03821115611d4857611d47611cce565b5b828201905092915050565b6000611d5e8261134b565b91507fffffffffffffffffffffffffffffffffffffffffffffffffffffffffffffffff821415611d9157611d90611cce565b5b600182019050919050565b600081519050919050565b60005b83811015611dc5578082015181840152602081019050611daa565b83811115611dd4576000848401525b50505050565b6000611de582611d9c565b611def8185611848565b9350611dff818560208601611da7565b611e0881611386565b840191505092915050565b60006020820190508181036000830152611e2d8184611dda565b905092915050565b6000819050919050565b611e4881611e35565b82525050565b600067ffffffffffffffff82169050919050565b611e6b81611e4e565b82525050565b600061ffff82169050919050565b611e8881611e71565b82525050565b600063ffffffff82169050919050565b611ea781611e8e565b82525050565b600060a082019050611ec26000830188611e3f565b611ecf6020830187611e62565b611edc6040830186611e7f565b611ee96060830185611e9e565b611ef66080830184611e9e565b9695505050505050565b600081519050611f0f81611355565b92915050565b600060208284031215611f2b57611f2a611341565b5b6000611f3984828501611f00565b91505092915050565b6000611f4d8261134b565b9150611f588361134b565b9250817fffffffffffffffffffffffffffffffffffffffffffffffffffffffffffffffff0483118215151615611f9157611f90611cce565b5b828202905092915050565b6000611fa78261134b565b9150611fb28361134b565b925082611fc257611fc1611c6e565b5b82820490509291505056fea26469706673582212204f5a3bfbdbc071bb9d8137ab072891bc7b6a9ba409857e9b4c793706b56d27d664736f6c634300080a0033",
  "linkReferences": {},
  "deployedLinkReferences": {}
}