{
  "_format": "hh-sol-artifact-1",
  "contractName": "Hilow",
  "sourceName": "contracts/Hilow.sol",
  "abi": [
    {
      "inputs": [
        {
          "internalType": "uint64",
          "name": "subscriptionId",
          "type": "uint64"
        }
      ],
      "stateMutability": "payable",
      "type": "constructor"
    },
    {
      "inputs": [
        {
          "internalType": "address",
          "name": "have",
          "type": "address"
        },
        {
          "internalType": "address",
          "name": "want",
          "type": "address"
        }
      ],
      "name": "OnlyCoordinatorCanFulfill",
      "type": "error"
    },
    {
      "anonymous": false,
      "inputs": [
        {
          "indexed": true,
          "internalType": "address",
          "name": "player",
          "type": "address"
        },
        {
          "indexed": false,
          "internalType": "string",
          "name": "firstDrawCardName",
          "type": "string"
        }
      ],
      "name": "CardDrawn",
      "type": "event"
    },
    {
      "anonymous": false,
      "inputs": [
        {
          "indexed": true,
          "internalType": "address",
          "name": "tipper",
          "type": "address"
        },
        {
          "indexed": false,
          "internalType": "uint256",
          "name": "amount",
          "type": "uint256"
        }
      ],
      "name": "DealerTipped",
      "type": "event"
    },
    {
      "anonymous": false,
      "inputs": [
        {
          "indexed": true,
          "internalType": "address",
          "name": "player",
          "type": "address"
        },
        {
          "indexed": false,
          "internalType": "string",
          "name": "firstDrawCardName",
          "type": "string"
        },
        {
          "indexed": false,
          "internalType": "string",
          "name": "secondDrawCardName",
          "type": "string"
        },
        {
          "indexed": false,
          "internalType": "bool",
          "name": "isWin",
          "type": "bool"
        },
        {
          "indexed": false,
          "internalType": "uint256",
          "name": "payoutAmount",
          "type": "uint256"
        }
      ],
      "name": "GameFinished",
      "type": "event"
    },
    {
      "inputs": [
        {
          "internalType": "bool",
          "name": "higher",
          "type": "bool"
        }
      ],
      "name": "bet",
      "outputs": [],
      "stateMutability": "payable",
      "type": "function"
    },
    {
      "inputs": [],
      "name": "drawCard",
      "outputs": [],
      "stateMutability": "nonpayable",
      "type": "function"
    },
    {
      "inputs": [],
      "name": "initialCardLoad",
      "outputs": [],
      "stateMutability": "nonpayable",
      "type": "function"
    },
    {
      "inputs": [
        {
          "internalType": "uint256",
          "name": "requestId",
          "type": "uint256"
        },
        {
          "internalType": "uint256[]",
          "name": "randomWords",
          "type": "uint256[]"
        }
      ],
      "name": "rawFulfillRandomWords",
      "outputs": [],
      "stateMutability": "nonpayable",
      "type": "function"
    },
    {
      "inputs": [],
      "name": "tip",
      "outputs": [],
      "stateMutability": "payable",
      "type": "function"
    },
    {
      "inputs": [],
      "name": "viewCards",
      "outputs": [
        {
          "components": [
            {
              "internalType": "uint256",
              "name": "value",
              "type": "uint256"
            }
          ],
          "internalType": "struct Hilow.Card[20]",
          "name": "",
          "type": "tuple[20]"
        }
      ],
      "stateMutability": "view",
      "type": "function"
    },
    {
      "inputs": [],
      "name": "viewCurrentCardCounter",
      "outputs": [
        {
          "internalType": "uint256",
          "name": "",
          "type": "uint256"
        }
      ],
      "stateMutability": "view",
      "type": "function"
    },
    {
      "inputs": [
        {
          "internalType": "address",
          "name": "addr",
          "type": "address"
        }
      ],
      "name": "viewGame",
      "outputs": [
        {
          "components": [
            {
              "components": [
                {
                  "internalType": "uint256",
                  "name": "value",
                  "type": "uint256"
                }
              ],
              "internalType": "struct Hilow.Card",
              "name": "firstDraw",
              "type": "tuple"
            },
            {
              "components": [
                {
                  "internalType": "uint256",
                  "name": "value",
                  "type": "uint256"
                }
              ],
              "internalType": "struct Hilow.Card",
              "name": "secondDraw",
              "type": "tuple"
            }
          ],
          "internalType": "struct Hilow.Game",
          "name": "",
          "type": "tuple"
        }
      ],
      "stateMutability": "view",
      "type": "function"
    },
    {
      "inputs": [],
      "name": "withdraw",
      "outputs": [],
      "stateMutability": "nonpayable",
      "type": "function"
    }
  ],
  "bytecode": "0x60a060405260405180602001604052806000815250600260008201518160000155505060405162001fa938038062001fa9833981810160405281019062000047919062000170565b737a1bac17ccc5b313516c5e16fb24f7659aa5ebed8073ffffffffffffffffffffffffffffffffffffffff1660808173ffffffffffffffffffffffffffffffffffffffff1660601b8152505050737a1bac17ccc5b313516c5e16fb24f7659aa5ebed6000806101000a81548173ffffffffffffffffffffffffffffffffffffffff021916908373ffffffffffffffffffffffffffffffffffffffff16021790555033600160006101000a81548173ffffffffffffffffffffffffffffffffffffffff021916908373ffffffffffffffffffffffffffffffffffffffff16021790555080600060146101000a81548167ffffffffffffffff021916908367ffffffffffffffff16021790555050620001ca565b6000815190506200016a81620001b0565b92915050565b6000602082840312156200018357600080fd5b6000620001938482850162000159565b91505092915050565b600067ffffffffffffffff82169050919050565b620001bb816200019c565b8114620001c757600080fd5b50565b60805160601c611db9620001f0600039600081816101b401526102080152611db96000f3fe6080604052600436106100865760003560e01c8063523afb0d11610059578063523afb0d146100ec578063717c0aba1461010857806385e6ed2e14610145578063db5051ce14610170578063fb2803cb1461018757610086565b80631fe543e31461008b5780632755cd2d146100b45780632f5be23e146100be5780633ccfd60b146100d5575b600080fd5b34801561009757600080fd5b506100b260048036038101906100ad91906113f5565b6101b2565b005b6100bc610272565b005b3480156100ca57600080fd5b506100d3610300565b005b3480156100e157600080fd5b506100ea6104a8565b005b610106600480360381019061010191906113a3565b6105dc565b005b34801561011457600080fd5b5061012f600480360381019061012a919061137a565b610983565b60405161013c919061183d565b60405180910390f35b34801561015157600080fd5b5061015a610a72565b60405161016791906116d9565b60405180910390f35b34801561017c57600080fd5b50610185610b25565b005b34801561019357600080fd5b5061019c610b8a565b6040516101a99190611858565b60405180910390f35b7f000000000000000000000000000000000000000000000000000000000000000073ffffffffffffffffffffffffffffffffffffffff163373ffffffffffffffffffffffffffffffffffffffff161461026457337f00000000000000000000000000000000000000000000000000000000000000006040517f1cf993f400000000000000000000000000000000000000000000000000000000815260040161025b9291906116b0565b60405180910390fd5b61026e8282610bf5565b5050565b6102b06040518060400160405280600d81526020017f4465616c65722074697070656400000000000000000000000000000000000000815250610cd8565b3373ffffffffffffffffffffffffffffffffffffffff167faeb748af67bf9eda4819fec479a0e3d66df3965f95a8e10a56e00ff0c3506e2d346040516102f69190611858565b60405180910390a2565b601063ffffffff166103126017610d71565b111561032257610320610d7f565b505b601463ffffffff166103346017610d71565b1115610345576103446017610e78565b5b60006103516017610d71565b905061035d6017610e85565b600060038260148110610399577f4e487b7100000000000000000000000000000000000000000000000000000000600052603260045260246000fd5b016040518060200160405290816000820154815250509050600060405180604001604052808381526020016002604051806020016040529081600082015481525050815250905080601860003373ffffffffffffffffffffffffffffffffffffffff1673ffffffffffffffffffffffffffffffffffffffff1681526020019081526020016000206000820151816000016000820151816000015550506020820151816001016000820151816000015550509050503373ffffffffffffffffffffffffffffffffffffffff167f0c09da089fe1b9ff434a36a4e92206fc1bea9019ee3300c7e7d36d7b3d21df0361048e84610e9b565b60405161049b9190611748565b60405180910390a2505050565b600160009054906101000a900473ffffffffffffffffffffffffffffffffffffffff1673ffffffffffffffffffffffffffffffffffffffff163373ffffffffffffffffffffffffffffffffffffffff161461050257600080fd5b6000479050600080600160009054906101000a900473ffffffffffffffffffffffffffffffffffffffff1673ffffffffffffffffffffffffffffffffffffffff16836040516105509061169b565b60006040518083038185875af1925050503d806000811461058d576040519150601f19603f3d011682016040523d82523d6000602084013e610592565b606091505b5091509150816105d7576040517f08c379a00000000000000000000000000000000000000000000000000000000081526004016105ce906117dd565b60405180910390fd5b505050565b6000601860003373ffffffffffffffffffffffffffffffffffffffff1673ffffffffffffffffffffffffffffffffffffffff168152602001908152602001600020604051806040016040529081600082016040518060200160405290816000820154815250508152602001600182016040518060200160405290816000820154815250508152505090506000816000015160000151116106b1576040517f08c379a00000000000000000000000000000000000000000000000000000000081526004016106a89061181d565b60405180910390fd5b6000816020015160000151146106fc576040517f08c379a00000000000000000000000000000000000000000000000000000000081526004016106f3906117bd565b60405180910390fd5b601463ffffffff1661070e6017610d71565b111561071f5761071e6017610e78565b5b600061072b6017610d71565b90506107376017610e85565b600060038260148110610773577f4e487b7100000000000000000000000000000000000000000000000000000000600052603260045260246000fd5b01604051806020016040529081600082015481525050905080836020018190525082601860003373ffffffffffffffffffffffffffffffffffffffff1673ffffffffffffffffffffffffffffffffffffffff1681526020019081526020016000206000820151816000016000820151816000015550506020820151816001016000820151816000015550509050506000841561082a578360000151600001518460200151600001511061082557600190505b610847565b8360000151600001518460200151600001511161084657600190505b5b6000811561090f5760023461085c919061196e565b90506000803373ffffffffffffffffffffffffffffffffffffffff168360405161088590611686565b60006040518083038185875af1925050503d80600081146108c2576040519150601f19603f3d011682016040523d82523d6000602084013e6108c7565b606091505b50915091508161090c576040517f08c379a0000000000000000000000000000000000000000000000000000000008152600401610903906117fd565b60405180910390fd5b50505b3373ffffffffffffffffffffffffffffffffffffffff167f345b9c7b861628d43e528dff8894baa3b14525cbf23f57a4a4599dbba8580c866109548760000151610e9b565b6109618860200151610e9b565b8585604051610973949392919061176a565b60405180910390a2505050505050565b61098b611229565b600160009054906101000a900473ffffffffffffffffffffffffffffffffffffffff1673ffffffffffffffffffffffffffffffffffffffff163373ffffffffffffffffffffffffffffffffffffffff16146109e557600080fd5b601860008373ffffffffffffffffffffffffffffffffffffffff1673ffffffffffffffffffffffffffffffffffffffff16815260200190815260200160002060405180604001604052908160008201604051806020016040529081600082015481525050815260200160018201604051806020016040529081600082015481525050815250509050919050565b610a7a61124f565b600160009054906101000a900473ffffffffffffffffffffffffffffffffffffffff1673ffffffffffffffffffffffffffffffffffffffff163373ffffffffffffffffffffffffffffffffffffffff1614610ad457600080fd5b6003601480602002604051908101604052809291906000905b82821015610b1c5783820160405180602001604052908160008201548152505081526020019060010190610aed565b50505050905090565b600160009054906101000a900473ffffffffffffffffffffffffffffffffffffffff1673ffffffffffffffffffffffffffffffffffffffff163373ffffffffffffffffffffffffffffffffffffffff1614610b7f57600080fd5b610b87610d7f565b50565b6000600160009054906101000a900473ffffffffffffffffffffffffffffffffffffffff1673ffffffffffffffffffffffffffffffffffffffff163373ffffffffffffffffffffffffffffffffffffffff1614610be657600080fd5b610bf06017610d71565b905090565b60005b601463ffffffff16811015610cc95760405180602001604052806001600d858581518110610c4f577f4e487b7100000000000000000000000000000000000000000000000000000000600052603260045260246000fd5b6020026020010151610c619190611b2d565b610c6b9190611918565b81525060038260148110610ca8577f4e487b7100000000000000000000000000000000000000000000000000000000600052603260045260246000fd5b01600082015181600001559050508080610cc190611ae4565b915050610bf8565b50610cd46017610e78565b5050565b610d6e81604051602401610cec9190611748565b6040516020818303038152906040527f41304fac000000000000000000000000000000000000000000000000000000007bffffffffffffffffffffffffffffffffffffffffffffffffffffffff19166020820180517bffffffffffffffffffffffffffffffffffffffffffffffffffffffff8381831617835250505050611200565b50565b600081600001549050919050565b60008060009054906101000a900473ffffffffffffffffffffffffffffffffffffffff1673ffffffffffffffffffffffffffffffffffffffff16635d3b1d307f4b09e658ed251bcafeebbc69400383d49f344ace09b9576fe248bb02c003fe9f60001b600060149054906101000a900467ffffffffffffffff166003620f424060146040518663ffffffff1660e01b8152600401610e219594939291906116f5565b602060405180830381600087803b158015610e3b57600080fd5b505af1158015610e4f573d6000803e3d6000fd5b505050506040513d601f19601f82011682018060405250810190610e7391906113cc565b905090565b6000816000018190555050565b6001816000016000828254019250508190555050565b60606000604051806101a001604052806040518060400160405280600181526020017f410000000000000000000000000000000000000000000000000000000000000081525081526020016040518060400160405280600181526020017f320000000000000000000000000000000000000000000000000000000000000081525081526020016040518060400160405280600181526020017f330000000000000000000000000000000000000000000000000000000000000081525081526020016040518060400160405280600181526020017f340000000000000000000000000000000000000000000000000000000000000081525081526020016040518060400160405280600181526020017f350000000000000000000000000000000000000000000000000000000000000081525081526020016040518060400160405280600181526020017f360000000000000000000000000000000000000000000000000000000000000081525081526020016040518060400160405280600181526020017f370000000000000000000000000000000000000000000000000000000000000081525081526020016040518060400160405280600181526020017f380000000000000000000000000000000000000000000000000000000000000081525081526020016040518060400160405280600181526020017f390000000000000000000000000000000000000000000000000000000000000081525081526020016040518060400160405280600281526020017f313000000000000000000000000000000000000000000000000000000000000081525081526020016040518060400160405280600181526020017f4a0000000000000000000000000000000000000000000000000000000000000081525081526020016040518060400160405280600181526020017f510000000000000000000000000000000000000000000000000000000000000081525081526020016040518060400160405280600181526020017f4b00000000000000000000000000000000000000000000000000000000000000815250815250905080600184600001516111bc91906119c8565b600d81106111f3577f4e487b7100000000000000000000000000000000000000000000000000000000600052603260045260246000fd5b6020020151915050919050565b60008151905060006a636f6e736f6c652e6c6f679050602083016000808483855afa5050505050565b604051806040016040528061123c61127d565b815260200161124961127d565b81525090565b6040518061028001604052806014905b61126761127d565b81526020019060019003908161125f5790505090565b6040518060200160405280600081525090565b60006112a361129e84611898565b611873565b905080838252602082019050828560208602820111156112c257600080fd5b60005b858110156112f257816112d88882611350565b8452602084019350602083019250506001810190506112c5565b5050509392505050565b60008135905061130b81611d3e565b92915050565b600082601f83011261132257600080fd5b8135611332848260208601611290565b91505092915050565b60008135905061134a81611d55565b92915050565b60008135905061135f81611d6c565b92915050565b60008151905061137481611d6c565b92915050565b60006020828403121561138c57600080fd5b600061139a848285016112fc565b91505092915050565b6000602082840312156113b557600080fd5b60006113c38482850161133b565b91505092915050565b6000602082840312156113de57600080fd5b60006113ec84828501611365565b91505092915050565b6000806040838503121561140857600080fd5b600061141685828601611350565b925050602083013567ffffffffffffffff81111561143357600080fd5b61143f85828601611311565b9150509250929050565b600061145583836115f0565b60208301905092915050565b61146a816119fc565b82525050565b611479816118ce565b61148381846118f1565b925061148e826118c4565b8060005b838110156114bf5781516114a68782611449565b96506114b1836118e4565b925050600181019050611492565b505050505050565b6114d081611a0e565b82525050565b6114df81611a1a565b82525050565b60006114f0826118d9565b6114fa8185611907565b935061150a818560208601611a80565b61151381611beb565b840191505092915050565b600061152b602f83611907565b915061153682611bfc565b604082019050919050565b600061154e600f83611907565b915061155982611c4b565b602082019050919050565b6000611571600e836118fc565b915061157c82611c74565b600e82019050919050565b6000611594600d83611907565b915061159f82611c9d565b602082019050919050565b60006115b76011836118fc565b91506115c282611cc6565b601182019050919050565b60006115da602783611907565b91506115e582611cef565b604082019050919050565b602082016000820151611606600085018261164a565b50505050565b60408201600082015161162260008501826115f0565b50602082015161163560208501826115f0565b50505050565b61164481611a24565b82525050565b61165381611a52565b82525050565b61166281611a52565b82525050565b61167181611a5c565b82525050565b61168081611a6c565b82525050565b600061169182611564565b9150819050919050565b60006116a6826115aa565b9150819050919050565b60006040820190506116c56000830185611461565b6116d26020830184611461565b9392505050565b6000610280820190506116ef6000830184611470565b92915050565b600060a08201905061170a60008301886114d6565b6117176020830187611677565b611724604083018661163b565b6117316060830185611668565b61173e6080830184611668565b9695505050505050565b6000602082019050818103600083015261176281846114e5565b905092915050565b6000608082019050818103600083015261178481876114e5565b9050818103602083015261179881866114e5565b90506117a760408301856114c7565b6117b46060830184611659565b95945050505050565b600060208201905081810360008301526117d68161151e565b9050919050565b600060208201905081810360008301526117f681611541565b9050919050565b6000602082019050818103600083015261181681611587565b9050919050565b60006020820190508181036000830152611836816115cd565b9050919050565b6000604082019050611852600083018461160c565b92915050565b600060208201905061186d6000830184611659565b92915050565b600061187d61188e565b90506118898282611ab3565b919050565b6000604051905090565b600067ffffffffffffffff8211156118b3576118b2611bbc565b5b602082029050602081019050919050565b6000819050919050565b600060149050919050565b600081519050919050565b6000602082019050919050565b600081905092915050565b600081905092915050565b600082825260208201905092915050565b600061192382611a52565b915061192e83611a52565b9250827fffffffffffffffffffffffffffffffffffffffffffffffffffffffffffffffff0382111561196357611962611b5e565b5b828201905092915050565b600061197982611a52565b915061198483611a52565b9250817fffffffffffffffffffffffffffffffffffffffffffffffffffffffffffffffff04831182151516156119bd576119bc611b5e565b5b828202905092915050565b60006119d382611a52565b91506119de83611a52565b9250828210156119f1576119f0611b5e565b5b828203905092915050565b6000611a0782611a32565b9050919050565b60008115159050919050565b6000819050919050565b600061ffff82169050919050565b600073ffffffffffffffffffffffffffffffffffffffff82169050919050565b6000819050919050565b600063ffffffff82169050919050565b600067ffffffffffffffff82169050919050565b60005b83811015611a9e578082015181840152602081019050611a83565b83811115611aad576000848401525b50505050565b611abc82611beb565b810181811067ffffffffffffffff82111715611adb57611ada611bbc565b5b80604052505050565b6000611aef82611a52565b91507fffffffffffffffffffffffffffffffffffffffffffffffffffffffffffffffff821415611b2257611b21611b5e565b5b600182019050919050565b6000611b3882611a52565b9150611b4383611a52565b925082611b5357611b52611b8d565b5b828206905092915050565b7f4e487b7100000000000000000000000000000000000000000000000000000000600052601160045260246000fd5b7f4e487b7100000000000000000000000000000000000000000000000000000000600052601260045260246000fd5b7f4e487b7100000000000000000000000000000000000000000000000000000000600052604160045260246000fd5b6000601f19601f8301169050919050565b7f5365636f6e6420636172642068617320616c7265616479206265656e2064726160008201527f776e20666f72207468652067616d650000000000000000000000000000000000602082015250565b7f5769746864726177206661696c65640000000000000000000000000000000000600082015250565b7f53656e64696e67207061796f7574000000000000000000000000000000000000600082015250565b7f5061796f7574206661696c656400000000000000000000000000000000000000600082015250565b7f5769746864726177696e672066756e6473000000000000000000000000000000600082015250565b7f466972737420636172642073686f756c6420626520647261776e20666f72207460008201527f68652067616d6500000000000000000000000000000000000000000000000000602082015250565b611d47816119fc565b8114611d5257600080fd5b50565b611d5e81611a0e565b8114611d6957600080fd5b50565b611d7581611a52565b8114611d8057600080fd5b5056fea26469706673582212202cb2da4cebb77b8f5d9fe5fd98c795434835f58d1eb992c64ef0adfa02497e9564736f6c63430008040033",
  "linkReferences": {},
  "deployedLinkReferences": {}
}