{
  "_format": "hh-sol-artifact-1",
  "contractName": "Hilow",
  "sourceName": "contracts/Hilow.sol",
  "abi": [
    {
      "inputs": [
        {
          "internalType": "uint64",
          "name": "subscriptionId",
          "type": "uint64"
        }
      ],
      "stateMutability": "payable",
      "type": "constructor"
    },
    {
      "inputs": [
        {
          "internalType": "address",
          "name": "have",
          "type": "address"
        },
        {
          "internalType": "address",
          "name": "want",
          "type": "address"
        }
      ],
      "name": "OnlyCoordinatorCanFulfill",
      "type": "error"
    },
    {
      "anonymous": false,
      "inputs": [
        {
          "indexed": true,
          "internalType": "address",
          "name": "player",
          "type": "address"
        },
        {
          "indexed": false,
          "internalType": "uint256",
          "name": "firstDrawCard",
          "type": "uint256"
        }
      ],
      "name": "CardDrawn",
      "type": "event"
    },
    {
      "anonymous": false,
      "inputs": [
        {
          "indexed": true,
          "internalType": "address",
          "name": "tipper",
          "type": "address"
        },
        {
          "indexed": false,
          "internalType": "uint256",
          "name": "amount",
          "type": "uint256"
        }
      ],
      "name": "DealerTipped",
      "type": "event"
    },
    {
      "anonymous": false,
      "inputs": [
        {
          "indexed": true,
          "internalType": "address",
          "name": "player",
          "type": "address"
        },
        {
          "indexed": false,
          "internalType": "uint256",
          "name": "firstDrawCard",
          "type": "uint256"
        },
        {
          "indexed": false,
          "internalType": "uint256",
          "name": "secondDrawCard",
          "type": "uint256"
        },
        {
          "indexed": false,
          "internalType": "bool",
          "name": "isWin",
          "type": "bool"
        },
        {
          "indexed": false,
          "internalType": "uint256",
          "name": "payoutAmount",
          "type": "uint256"
        }
      ],
      "name": "GameFinished",
      "type": "event"
    },
    {
      "inputs": [
        {
          "internalType": "bool",
          "name": "higher",
          "type": "bool"
        }
      ],
      "name": "bet",
      "outputs": [],
      "stateMutability": "payable",
      "type": "function"
    },
    {
      "inputs": [],
      "name": "drawCard",
      "outputs": [],
      "stateMutability": "nonpayable",
      "type": "function"
    },
    {
      "inputs": [],
      "name": "getActiveGame",
      "outputs": [
        {
          "internalType": "bool",
          "name": "",
          "type": "bool"
        },
        {
          "components": [
            {
              "components": [
                {
                  "internalType": "uint256",
                  "name": "value",
                  "type": "uint256"
                }
              ],
              "internalType": "struct Hilow.Card",
              "name": "firstDraw",
              "type": "tuple"
            },
            {
              "components": [
                {
                  "internalType": "uint256",
                  "name": "value",
                  "type": "uint256"
                }
              ],
              "internalType": "struct Hilow.Card",
              "name": "secondDraw",
              "type": "tuple"
            }
          ],
          "internalType": "struct Hilow.Game",
          "name": "",
          "type": "tuple"
        }
      ],
      "stateMutability": "view",
      "type": "function"
    },
    {
      "inputs": [],
      "name": "initialCardLoad",
      "outputs": [],
      "stateMutability": "nonpayable",
      "type": "function"
    },
    {
      "inputs": [],
      "name": "isGameAlreadyStarted",
      "outputs": [
        {
          "internalType": "bool",
          "name": "",
          "type": "bool"
        }
      ],
      "stateMutability": "view",
      "type": "function"
    },
    {
      "inputs": [
        {
          "internalType": "uint256",
          "name": "requestId",
          "type": "uint256"
        },
        {
          "internalType": "uint256[]",
          "name": "randomWords",
          "type": "uint256[]"
        }
      ],
      "name": "rawFulfillRandomWords",
      "outputs": [],
      "stateMutability": "nonpayable",
      "type": "function"
    },
    {
      "inputs": [],
      "name": "tip",
      "outputs": [],
      "stateMutability": "payable",
      "type": "function"
    },
    {
      "inputs": [],
      "name": "viewCards",
      "outputs": [
        {
          "components": [
            {
              "internalType": "uint256",
              "name": "value",
              "type": "uint256"
            }
          ],
          "internalType": "struct Hilow.Card[20]",
          "name": "",
          "type": "tuple[20]"
        }
      ],
      "stateMutability": "view",
      "type": "function"
    },
    {
      "inputs": [],
      "name": "viewCurrentCardCounter",
      "outputs": [
        {
          "internalType": "uint256",
          "name": "",
          "type": "uint256"
        }
      ],
      "stateMutability": "view",
      "type": "function"
    },
    {
      "inputs": [
        {
          "internalType": "address",
          "name": "addr",
          "type": "address"
        }
      ],
      "name": "viewGame",
      "outputs": [
        {
          "components": [
            {
              "components": [
                {
                  "internalType": "uint256",
                  "name": "value",
                  "type": "uint256"
                }
              ],
              "internalType": "struct Hilow.Card",
              "name": "firstDraw",
              "type": "tuple"
            },
            {
              "components": [
                {
                  "internalType": "uint256",
                  "name": "value",
                  "type": "uint256"
                }
              ],
              "internalType": "struct Hilow.Card",
              "name": "secondDraw",
              "type": "tuple"
            }
          ],
          "internalType": "struct Hilow.Game",
          "name": "",
          "type": "tuple"
        }
      ],
      "stateMutability": "view",
      "type": "function"
    },
    {
      "inputs": [],
      "name": "withdraw",
      "outputs": [],
      "stateMutability": "nonpayable",
      "type": "function"
    }
  ],
  "bytecode": "0x60a060405260405180602001604052806000815250600260008201518160000155505060405162001f1538038062001f15833981810160405281019062000047919062000170565b737a1bac17ccc5b313516c5e16fb24f7659aa5ebed8073ffffffffffffffffffffffffffffffffffffffff1660808173ffffffffffffffffffffffffffffffffffffffff1660601b8152505050737a1bac17ccc5b313516c5e16fb24f7659aa5ebed6000806101000a81548173ffffffffffffffffffffffffffffffffffffffff021916908373ffffffffffffffffffffffffffffffffffffffff16021790555033600160006101000a81548173ffffffffffffffffffffffffffffffffffffffff021916908373ffffffffffffffffffffffffffffffffffffffff16021790555080600060146101000a81548167ffffffffffffffff021916908367ffffffffffffffff16021790555050620001ca565b6000815190506200016a81620001b0565b92915050565b6000602082840312156200018357600080fd5b6000620001938482850162000159565b91505092915050565b600067ffffffffffffffff82169050919050565b620001bb816200019c565b8114620001c757600080fd5b50565b60805160601c611d25620001f06000396000818161022101526102750152611d256000f3fe60806040526004361061009c5760003560e01c8063717c0aba11610064578063717c0aba1461011e57806385e6ed2e1461015b578063957b5fb414610186578063d1565c4e146101b2578063db5051ce146101dd578063fb2803cb146101f45761009c565b80631fe543e3146100a15780632755cd2d146100ca5780632f5be23e146100d45780633ccfd60b146100eb578063523afb0d14610102575b600080fd5b3480156100ad57600080fd5b506100c860048036038101906100c391906112f3565b61021f565b005b6100d26102df565b005b3480156100e057600080fd5b506100e961036d565b005b3480156100f757600080fd5b50610100610559565b005b61011c600480360381019061011791906112a1565b61068d565b005b34801561012a57600080fd5b5061014560048036038101906101409190611278565b610a2c565b604051610152919061176f565b60405180910390f35b34801561016757600080fd5b50610170610b1b565b60405161017d91906115fa565b60405180910390f35b34801561019257600080fd5b5061019b610bce565b6040516101a9929190611631565b60405180910390f35b3480156101be57600080fd5b506101c7610cc5565b6040516101d49190611616565b60405180910390f35b3480156101e957600080fd5b506101f2610d88565b005b34801561020057600080fd5b50610209610ded565b604051610216919061178a565b60405180910390f35b7f000000000000000000000000000000000000000000000000000000000000000073ffffffffffffffffffffffffffffffffffffffff163373ffffffffffffffffffffffffffffffffffffffff16146102d157337f00000000000000000000000000000000000000000000000000000000000000006040517f1cf993f40000000000000000000000000000000000000000000000000000000081526004016102c89291906115d1565b60405180910390fd5b6102db8282610e58565b5050565b61031d6040518060400160405280600d81526020017f4465616c65722074697070656400000000000000000000000000000000000000815250610f3b565b3373ffffffffffffffffffffffffffffffffffffffff167faeb748af67bf9eda4819fec479a0e3d66df3965f95a8e10a56e00ff0c3506e2d34604051610363919061178a565b60405180910390a2565b601063ffffffff1661037f6017610fd4565b111561038f5761038d610fe2565b505b601463ffffffff166103a16017610fd4565b11156103b2576103b160176110db565b5b6103ba610cc5565b156103fa576040517f08c379a00000000000000000000000000000000000000000000000000000000081526004016103f19061172f565b60405180910390fd5b60006104066017610fd4565b905061041260176110e8565b60006003826014811061044e577f4e487b7100000000000000000000000000000000000000000000000000000000600052603260045260246000fd5b016040518060200160405290816000820154815250509050600060405180604001604052808381526020016002604051806020016040529081600082015481525050815250905080601860003373ffffffffffffffffffffffffffffffffffffffff1673ffffffffffffffffffffffffffffffffffffffff1681526020019081526020016000206000820151816000016000820151816000015550506020820151816001016000820151816000015550509050503373ffffffffffffffffffffffffffffffffffffffff167fe03d22eed58609dac2f9724dfcad843c62fd0ba8050bf0eef99b6d1be0458c18836000015160405161054c919061178a565b60405180910390a2505050565b600160009054906101000a900473ffffffffffffffffffffffffffffffffffffffff1673ffffffffffffffffffffffffffffffffffffffff163373ffffffffffffffffffffffffffffffffffffffff16146105b357600080fd5b6000479050600080600160009054906101000a900473ffffffffffffffffffffffffffffffffffffffff1673ffffffffffffffffffffffffffffffffffffffff1683604051610601906115bc565b60006040518083038185875af1925050503d806000811461063e576040519150601f19603f3d011682016040523d82523d6000602084013e610643565b606091505b509150915081610688576040517f08c379a000000000000000000000000000000000000000000000000000000000815260040161067f906116ef565b60405180910390fd5b505050565b6000601860003373ffffffffffffffffffffffffffffffffffffffff1673ffffffffffffffffffffffffffffffffffffffff16815260200190815260200160002060405180604001604052908160008201604051806020016040529081600082015481525050815260200160018201604051806020016040529081600082015481525050815250509050600081600001516000015111610762576040517f08c379a00000000000000000000000000000000000000000000000000000000081526004016107599061174f565b60405180910390fd5b6000816020015160000151146107ad576040517f08c379a00000000000000000000000000000000000000000000000000000000081526004016107a4906116cf565b60405180910390fd5b601463ffffffff166107bf6017610fd4565b11156107d0576107cf60176110db565b5b60006107dc6017610fd4565b90506107e860176110e8565b600060038260148110610824577f4e487b7100000000000000000000000000000000000000000000000000000000600052603260045260246000fd5b01604051806020016040529081600082015481525050905080836020018190525082601860003373ffffffffffffffffffffffffffffffffffffffff1673ffffffffffffffffffffffffffffffffffffffff168152602001908152602001600020600082015181600001600082015181600001555050602082015181600101600082015181600001555050905050600084156108db57836000015160000151846020015160000151106108d657600190505b6108f8565b836000015160000151846020015160000151116108f757600190505b5b600081156109c05760023461090d91906118e5565b90506000803373ffffffffffffffffffffffffffffffffffffffff1683604051610936906115a7565b60006040518083038185875af1925050503d8060008114610973576040519150601f19603f3d011682016040523d82523d6000602084013e610978565b606091505b5091509150816109bd576040517f08c379a00000000000000000000000000000000000000000000000000000000081526004016109b49061170f565b60405180910390fd5b50505b3373ffffffffffffffffffffffffffffffffffffffff167fd5e55c324aecf41097905ffaae7bc2cd4c3830568ecac4157df1c47da1f8c9ee8660000151600001518760200151600001518585604051610a1c94939291906117a5565b60405180910390a2505050505050565b610a34611127565b600160009054906101000a900473ffffffffffffffffffffffffffffffffffffffff1673ffffffffffffffffffffffffffffffffffffffff163373ffffffffffffffffffffffffffffffffffffffff1614610a8e57600080fd5b601860008373ffffffffffffffffffffffffffffffffffffffff1673ffffffffffffffffffffffffffffffffffffffff16815260200190815260200160002060405180604001604052908160008201604051806020016040529081600082015481525050815260200160018201604051806020016040529081600082015481525050815250509050919050565b610b2361114d565b600160009054906101000a900473ffffffffffffffffffffffffffffffffffffffff1673ffffffffffffffffffffffffffffffffffffffff163373ffffffffffffffffffffffffffffffffffffffff1614610b7d57600080fd5b6003601480602002604051908101604052809291906000905b82821015610bc55783820160405180602001604052908160008201548152505081526020019060010190610b96565b50505050905090565b6000610bd8611127565b610be0610cc5565b15610c79576001601860003373ffffffffffffffffffffffffffffffffffffffff1673ffffffffffffffffffffffffffffffffffffffff168152602001908152602001600020806040518060400160405290816000820160405180602001604052908160008201548152505081526020016001820160405180602001604052908160008201548152505081525050905091509150610cc1565b60006040518060400160405280600260405180602001604052908160008201548152505081526020016002604051806020016040529081600082015481525050815250915091505b9091565b600080601860003373ffffffffffffffffffffffffffffffffffffffff1673ffffffffffffffffffffffffffffffffffffffff168152602001908152602001600020604051806040016040529081600082016040518060200160405290816000820154815250508152602001600182016040518060200160405290816000820154815250508152505090506000816000015160000151118015610d7057506000816020015160000151145b15610d7f576001915050610d85565b60009150505b90565b600160009054906101000a900473ffffffffffffffffffffffffffffffffffffffff1673ffffffffffffffffffffffffffffffffffffffff163373ffffffffffffffffffffffffffffffffffffffff1614610de257600080fd5b610dea610fe2565b50565b6000600160009054906101000a900473ffffffffffffffffffffffffffffffffffffffff1673ffffffffffffffffffffffffffffffffffffffff163373ffffffffffffffffffffffffffffffffffffffff1614610e4957600080fd5b610e536017610fd4565b905090565b60005b601463ffffffff16811015610f2c5760405180602001604052806001600d858581518110610eb2577f4e487b7100000000000000000000000000000000000000000000000000000000600052603260045260246000fd5b6020026020010151610ec49190611a70565b610ece919061188f565b81525060038260148110610f0b577f4e487b7100000000000000000000000000000000000000000000000000000000600052603260045260246000fd5b01600082015181600001559050508080610f2490611a27565b915050610e5b565b50610f3760176110db565b5050565b610fd181604051602401610f4f91906116ad565b6040516020818303038152906040527f41304fac000000000000000000000000000000000000000000000000000000007bffffffffffffffffffffffffffffffffffffffffffffffffffffffff19166020820180517bffffffffffffffffffffffffffffffffffffffffffffffffffffffff83818316178352505050506110fe565b50565b600081600001549050919050565b60008060009054906101000a900473ffffffffffffffffffffffffffffffffffffffff1673ffffffffffffffffffffffffffffffffffffffff16635d3b1d307f4b09e658ed251bcafeebbc69400383d49f344ace09b9576fe248bb02c003fe9f60001b600060149054906101000a900467ffffffffffffffff166003620f424060146040518663ffffffff1660e01b815260040161108495949392919061165a565b602060405180830381600087803b15801561109e57600080fd5b505af11580156110b2573d6000803e3d6000fd5b505050506040513d601f19601f820116820180604052508101906110d691906112ca565b905090565b6000816000018190555050565b6001816000016000828254019250508190555050565b60008151905060006a636f6e736f6c652e6c6f679050602083016000808483855afa5050505050565b604051806040016040528061113a61117b565b815260200161114761117b565b81525090565b6040518061028001604052806014905b61116561117b565b81526020019060019003908161115d5790505090565b6040518060200160405280600081525090565b60006111a161119c8461180f565b6117ea565b905080838252602082019050828560208602820111156111c057600080fd5b60005b858110156111f057816111d6888261124e565b8452602084019350602083019250506001810190506111c3565b5050509392505050565b60008135905061120981611caa565b92915050565b600082601f83011261122057600080fd5b813561123084826020860161118e565b91505092915050565b60008135905061124881611cc1565b92915050565b60008135905061125d81611cd8565b92915050565b60008151905061127281611cd8565b92915050565b60006020828403121561128a57600080fd5b6000611298848285016111fa565b91505092915050565b6000602082840312156112b357600080fd5b60006112c184828501611239565b91505092915050565b6000602082840312156112dc57600080fd5b60006112ea84828501611263565b91505092915050565b6000806040838503121561130657600080fd5b60006113148582860161124e565b925050602083013567ffffffffffffffff81111561133157600080fd5b61133d8582860161120f565b9150509250929050565b60006113538383611511565b60208301905092915050565b6113688161193f565b82525050565b61137781611845565b6113818184611868565b925061138c8261183b565b8060005b838110156113bd5781516113a48782611347565b96506113af8361185b565b925050600181019050611390565b505050505050565b6113ce81611951565b82525050565b6113dd8161195d565b82525050565b60006113ee82611850565b6113f8818561187e565b93506114088185602086016119c3565b61141181611b2e565b840191505092915050565b6000611429602f8361187e565b915061143482611b3f565b604082019050919050565b600061144c600f8361187e565b915061145782611b8e565b602082019050919050565b600061146f600e83611873565b915061147a82611bb7565b600e82019050919050565b6000611492600d8361187e565b915061149d82611be0565b602082019050919050565b60006114b5601183611873565b91506114c082611c09565b601182019050919050565b60006114d860148361187e565b91506114e382611c32565b602082019050919050565b60006114fb60278361187e565b915061150682611c5b565b604082019050919050565b602082016000820151611527600085018261156b565b50505050565b6040820160008201516115436000850182611511565b5060208201516115566020850182611511565b50505050565b61156581611967565b82525050565b61157481611995565b82525050565b61158381611995565b82525050565b6115928161199f565b82525050565b6115a1816119af565b82525050565b60006115b282611462565b9150819050919050565b60006115c7826114a8565b9150819050919050565b60006040820190506115e6600083018561135f565b6115f3602083018461135f565b9392505050565b600061028082019050611610600083018461136e565b92915050565b600060208201905061162b60008301846113c5565b92915050565b600060608201905061164660008301856113c5565b611653602083018461152d565b9392505050565b600060a08201905061166f60008301886113d4565b61167c6020830187611598565b611689604083018661155c565b6116966060830185611589565b6116a36080830184611589565b9695505050505050565b600060208201905081810360008301526116c781846113e3565b905092915050565b600060208201905081810360008301526116e88161141c565b9050919050565b600060208201905081810360008301526117088161143f565b9050919050565b6000602082019050818103600083015261172881611485565b9050919050565b60006020820190508181036000830152611748816114cb565b9050919050565b60006020820190508181036000830152611768816114ee565b9050919050565b6000604082019050611784600083018461152d565b92915050565b600060208201905061179f600083018461157a565b92915050565b60006080820190506117ba600083018761157a565b6117c7602083018661157a565b6117d460408301856113c5565b6117e1606083018461157a565b95945050505050565b60006117f4611805565b905061180082826119f6565b919050565b6000604051905090565b600067ffffffffffffffff82111561182a57611829611aff565b5b602082029050602081019050919050565b6000819050919050565b600060149050919050565b600081519050919050565b6000602082019050919050565b600081905092915050565b600081905092915050565b600082825260208201905092915050565b600061189a82611995565b91506118a583611995565b9250827fffffffffffffffffffffffffffffffffffffffffffffffffffffffffffffffff038211156118da576118d9611aa1565b5b828201905092915050565b60006118f082611995565b91506118fb83611995565b9250817fffffffffffffffffffffffffffffffffffffffffffffffffffffffffffffffff048311821515161561193457611933611aa1565b5b828202905092915050565b600061194a82611975565b9050919050565b60008115159050919050565b6000819050919050565b600061ffff82169050919050565b600073ffffffffffffffffffffffffffffffffffffffff82169050919050565b6000819050919050565b600063ffffffff82169050919050565b600067ffffffffffffffff82169050919050565b60005b838110156119e15780820151818401526020810190506119c6565b838111156119f0576000848401525b50505050565b6119ff82611b2e565b810181811067ffffffffffffffff82111715611a1e57611a1d611aff565b5b80604052505050565b6000611a3282611995565b91507fffffffffffffffffffffffffffffffffffffffffffffffffffffffffffffffff821415611a6557611a64611aa1565b5b600182019050919050565b6000611a7b82611995565b9150611a8683611995565b925082611a9657611a95611ad0565b5b828206905092915050565b7f4e487b7100000000000000000000000000000000000000000000000000000000600052601160045260246000fd5b7f4e487b7100000000000000000000000000000000000000000000000000000000600052601260045260246000fd5b7f4e487b7100000000000000000000000000000000000000000000000000000000600052604160045260246000fd5b6000601f19601f8301169050919050565b7f5365636f6e6420636172642068617320616c7265616479206265656e2064726160008201527f776e20666f72207468652067616d650000000000000000000000000000000000602082015250565b7f5769746864726177206661696c65640000000000000000000000000000000000600082015250565b7f53656e64696e67207061796f7574000000000000000000000000000000000000600082015250565b7f5061796f7574206661696c656400000000000000000000000000000000000000600082015250565b7f5769746864726177696e672066756e6473000000000000000000000000000000600082015250565b7f47616d6520616c72656164792073746172746564000000000000000000000000600082015250565b7f466972737420636172642073686f756c6420626520647261776e20666f72207460008201527f68652067616d6500000000000000000000000000000000000000000000000000602082015250565b611cb38161193f565b8114611cbe57600080fd5b50565b611cca81611951565b8114611cd557600080fd5b50565b611ce181611995565b8114611cec57600080fd5b5056fea264697066735822122036c44e866e8f992d7a4db337dbc145f28d368aca5d7b0deb25d894c90532c37e64736f6c63430008040033",
  "linkReferences": {},
  "deployedLinkReferences": {}
}